:100000000C9430000C940A020C94E5030C94E50364
:100010000C94E5030C94E5030C94E5030C94E503C0
:100020000C94E5030C94E5030C94E5030C94E503B0
:100030000C94E5030C94E5030C94E5030C94E503A0
:100040000C94E5030C94E5030C94E5030C94E50390
:100050000C94E5030060006D0007D8006D0070800F
:1000600011241FBECFE5D8E0DEBFCDBFE4E5F0E050
:1000700040E017C0B591A59135912591059107FDF7
:100080000CC095918591EF01F92FE82F05900D9205
:10009000A217B307D9F7FE0104C01D92A217B30738
:1000A000E1F7E036F40731F70E9483030C94B203C2
:0400B000F894FFCFF2
:1000B4000FC00E94C40338F00E94CB0320F09523A4
:1000C40011F00C94D8030C94E20311240C94BE0395
:1000D4000E94510270F3959FC1F3950F50E0551F94
:1000E400629FF001729FBB27F00DB11D639FAA2789
:1000F400F00DB11DAA1F649F6627B00DA11D661FD8
:10010400829F2227B00DA11D621F739FB00DA11DF8
:10011400621F839FA00D611D221F749F3327A00DB2
:10012400611D231F849F600D211D822F762F6A2F4E
:1001340011249F5750409AF0F1F088234AF0EE0FB3
:10014400FF1FBB1F661F771F881F91505040A9F7E0
:100154009E3F510580F00C94D8030C94BE035F3F7E
:10016400E4F3983ED4F3869577956795B795F7951C
:10017400E7959F5FC1F7FE2B880F911D9695879594
:0401840097F908954A
:10018800AF92BF92CF92DF92EF92FF920F931F939D
:10019800CF93DF939C01EB016A01009721F480E380
:1001A8008883198242C0992364F44AE0C416D104B2
:1001B80059F431952195310931F1AA24A394B12C30
:1001C80005C0A12CB12C02C0A12CB12C8E01C901F3
:1001D800B6010E9427037801AFEFEA1AFA0AF7017D
:1001E8008A30910514F4805D01C0895CD8018C9334
:1001F800C901B6010E9427039B018701672B39F7C4
:10020800AB2829F001C0FB018DE280833196108272
:100218003197CE17DF0748F4DE01899190819D93CD
:1002280080833197CE17DF07C0F3DF91CF911F91FD
:100238000F91FF90EF90DF90CF90BF90AF9008950F
:10024800CF93DF9361E070E080E090E00E94B50218
:1002580025E32A95F1F7000060E070E080E090E087
:100268000E94B5028FEF9DEE22E081509040204021
:10027800E1F700C0000080916D0090916E00892B1D
:1002880011F1C0916D00D0916E000E94110380E6BB
:1002980090E00E94A303BE0180E090E00E946A0102
:1002A80028E23EE74CE85CE30E94DE030E94DB01A3
:1002B800CB010E94D6028AE690E00E94A303109226
:0C02C8006E0010926D00DF91CF91089540
:1002D400E89409C097FB3EF49095809570956195DC
:1002E4007F4F8F4F9F4F9923A9F0F92F96E9BB2792
:1002F4009395F695879577956795B795F111F8CF0E
:10030400FAF4BB0F11F460FF1BC06F5F7F4F8F4F78
:100314009F4F16C0882311F096E911C0772321F06E
:100324009EE8872F762F05C0662371F096E8862F06
:1003340070E060E02AF09A95660F771F881FDAF75D
:0A034400880F9695879597F90895A4
:10034E0061E070E080EF90E00E94930361E070E066
:10035E0086E090E00E942F0261E070E081E090E084
:10036E000E942F0261E070E083E090E00E942F0275
:10037E002FEF89EF90E0215080409040E1F700C0D0
:10038E00000060E070E086E090E00E94B50282E03E
:10039E000E94730288E20E9473028CE00E94730234
:0803AE0081E00E947302089532
:1003B6000E94590288F09F5798F0B92F9927B75194
:1003C600B0F0E1F0660F771F881F991F1AF0BA95F3
:1003D600C9F714C0B13091F00E94BD03B1E0089591
:1003E6000C94BD03672F782F8827B85F39F0B93F83
:1003F600CCF3869577956795B395D9F73EF49095A6
:0E0406008095709561957F4F8F4F9F4F0895A1
:100414001F921FB61F9211248F939F9380916F0098
:10042400813059F41EBC8CB59DB590936E008093B9
:100434006D001DBC1CBC10926F0080916F00811177
:1004440006C08EB581608EBD81E080936F009F9160
:0A0454008F911F901FBE1F90189596
:10045E006115710521F06130710579F0089541B390
:10046E0021E030E0B90102C0660F771F8A95E2F7EE
:10047E00CB018095842381BB089541B321E030E008
:10048E00B90102C0660F771F8A95E2F7CB01842B64
:04049E0081BB089581
:1004A20057FD9058440F551F59F05F3F71F0479523
:1004B200880F97FB991F61F09F3F79F08795089508
:1004C200121613061406551FF2CF4695F1DF08C027
:1004D200161617061806991FF1CF86957105610544
:0404E20008940895DD
:1004E600CF93C82F969885B38F709C2F907F892BBA
:1004F60085BB0E944F0385B3282F2F7030E1C39F21
:10050600C0011124822B85BB0E944F038FEF99EF08
:1005160020E0815090402040E1F700C00000CF91DC
:02052600089536
:10052800CF93C82F969A85B38F709C2F907F892B75
:1005380085BB0E944F0385B3282F2F7030E1C39FDE
:10054800C0011124822B85BB0E944F038FEF99EFC6
:1005580020E0815090402040E1F700C00000CF919A
:020568000895F4
:10056A006115710581F061307105D1F442B321E062
:10057A0030E0B90102C0660F771F8A95E2F7CB0116
:10058A00842B82BB089542B321E030E0B90102C056
:10059A00660F771F8A95E2F7CB018095842382BB89
:0205AA000895B2
:1005AC00CF93DF93CDB7DEB72B970FB6F894DEBFA2
:1005BC000FBECDBF4AE050E0BE016F5F7F4F0E947F
:1005CC00C400CE0101960E94A3032B960FB6F8949B
:0C05DC00DEBF0FBECDBFDF91CF910895B0
:1005E80095B79C7F95BF823361F018F4813331F061
:1005F8000895833351F0843361F0089585B785BF3A
:10060800089585B7816085BF089585B7826085BFE5
:0A061800089585B7836085BF08953B
:10062200969885B38F7085BB0E944F0385B38F70F8
:10063200806185BB0E944F032FEF89EF90E021502C
:0C06420080409040E1F700C000000895E7
:10064E0097FB072E16F4009407D077FD09D00E9471
:10065E003B0307FC05D03EF4909581959F4F08957E
:08066E00709561957F4F08951E
:10067600AA1BBB1B51E107C0AA1FBB1FA617B707C2
:1006860010F0A61BB70B881F991F5A95A9F78095DE
:080696009095BC01CD0108950F
:10069E00939A87EC90E00197F1F700C000009398D1
:1006AE009FEF29EF80E0915020408040E1F700C09D
:0406BE00000008959B
:1006C20061E070E080E090E00E942F0260E070E064
:1006D20082E090E00E942F0283E00E94D20378948D
:0206E200089579
:1006E400092E0394000C11F4882352F0BB0F40F43C
:1006F400BF2B11F460FF04C06F5F7F4F8F4F9F4F7C
:02070400089556
:100706000E94A7010E9461030E9424012FEF89E63F
:1007160098E1215080409040E1F700C00000F4CFFE
:100726006115710521F06130710531F0089594B3BA
:100736008095892384BB089594B3892B84BB08953F
:10074600CF93DF93EC018881882331F021960E94B4
:0E075600940289918111FBCFDF91CF9108951C
:10076400EC010E94EA030E94E903CE010E94EB031C
:06077400CE010E94E70324
:0E077A00E894BB2766277727CB0197F90895EF
:0E07880000240A94161617061806090608958E
:0E07960000240A941216130614060506089590
:0C07A4000E94F4028BB780648BBF0895A4
:0C07B00097F99F6780E870E060E0089512
:0807BC000E945A000C94720324
:0607C4009FEF80EC089598
:0407CA000C9400008B
:0407CE000E9458002D
:0207D200089588
:0207D400089586
:0207D600089584
:0D07D80044697374616E63653A00636D00DF
:00000001FF
