:100000000C942D000C9484020C9484020C948402B1
:100010000C9484020C9484020C9419010C948402B4
:100020000C9484020C9484020C9484020C94840238
:100030000C9484020C9484020C9484020C94840228
:100040000C9484020C9484020C9484020C94840218
:100050000C94840200600064800011241FBECFE570
:10006000D8E0DEBFCDBFE4E5F0E040E017C0B591D9
:10007000A59135912591059107FD0CC0959185912C
:10008000EF01F92FE82F05900D92A217B307D9F7CA
:10009000FE0104C01D92A217B307E1F7E935F4078A
:0E00A00031F70E94EB000C947202F894FFCF2F
:1000AE00AF92BF92CF92DF92EF92FF920F931F9378
:1000BE00CF93DF939C01EB016A01009721F480E35B
:1000CE008883198242C0992364F44AE0C416D1048D
:1000DE0059F431952195310931F1AA24A394B12C0B
:1000EE0005C0A12CB12C02C0A12CB12C8E01C901CE
:1000FE00B6010E94FD017801AFEFEA1AFA0AF70184
:10010E008A30910514F4805D01C0895CD8018C930E
:10011E00C901B6010E94FD019B018701672B39F7CA
:10012E00AB2829F001C0FB018DE28083319610824D
:10013E003197CE17DF0748F4DE01899190819D93A8
:10014E0080833197CE17DF07C0F3DF91CF911F91D8
:10015E000F91FF90EF90DF90CF90BF90AF900895EA
:10016E0061E070E080EF90E00E94370261E070E0A5
:10017E0081E090E00E94440161E070E084E090E054
:10018E000E94440161E070E085E090E00E9444012D
:10019E002FEF89EF90E0215080409040E1F700C0B2
:1001AE00000060E070E081E090E00E94A80182E033
:1001BE000E94660188E20E9466018CE00E94660140
:0801CE0081E00E946601089522
:1001D6000E94B7000E9465020E947D022FEF8DEEFD
:1001E60092E0215080409040E1F700C00000C091AD
:1001F6006200D09163000E94E7019E01AFE9B6E478
:100206000E94560296958795929582958F708927BA
:100216009F7089270E94C9012FEF89E698E1215036
:0C02260080409040E1F700C00000D6CFFF
:100232000F920FB60F922F933F938F939F930EB40B
:1002420006FE0AC086B597B5909361008093600060
:100252008EB58F7B8EBD0FC086B597B5209160009D
:1002620030916100821B930B909363008093620034
:100272008EB580648EBD9F918F913F912F910F908B
:060282000FBE0F9018955D
:100288006115710521F06130710579F0089541B368
:1002980021E030E0B90102C0660F771F8A95E2F7C6
:1002A800CB018095842381BB089541B321E030E0E0
:1002B800B90102C0660F771F8A95E2F7CB01842B3C
:0402C80081BB089559
:1002CC00CF93C82F919885B38F709C2F907F892BDB
:1002DC0085BB0E94250285B3282F2F7030E1C39F68
:1002EC00C0011124822B85BB0E9425028FEF99EF50
:1002FC0020E0815090402040E1F700C00000CF91F9
:02030C00089552
:10030E00CF93C82F919A85B38F709C2F907F892B96
:10031E0085BB0E94250285B3282F2F7030E1C39F25
:10032E00C0011124822B85BB0E9425028FEF99EF0D
:10033E0020E0815090402040E1F700C00000CF91B6
:02034E00089510
:100350006115710581F061307105D1F442B321E07E
:1003600030E0B90102C0660F771F8A95E2F7CB0132
:10037000842B82BB089542B321E030E0B90102C072
:10038000660F771F8A95E2F7CB018095842382BBA5
:020390000895CE
:10039200CF93DF93CDB7DEB72B970FB6F894DEBFBE
:1003A2000FBECDBF4AE050E0BE016F5F7F4F0E949B
:1003B2005700CE0101960E9447022B960FB6F89481
:0C03C200DEBF0FBECDBFDF91CF910895CC
:1003CE00919885B38F7085BB0E94250285B38F707F
:1003DE00806185BB0E9425022FEF89EF90E02150AE
:0C03EE0080409040E1F700C0000008953E
:1003FA0097FB072E16F4009407D077FD09D00E94C8
:10040A00110207FC05D03EF4909581959F4F0895FF
:08041A00709561957F4F089574
:10042200AA1BBB1B51E107C0AA1FBB1FA617B70718
:1004320010F0A61BB70B881F991F5A95A9F7809534
:080442009095BC01CD01089565
:10044A00959A87EC90E00197F1F700C00000959823
:10045A009FEF29EF80E0915020408040E1F700C0F3
:04046A0000000895F1
:10046E006115710521F06130710531F0089594B375
:10047E008095892384BB089594B3892B84BB0895FA
:10048E00CF93DF93EC018881882331F021960E946F
:0E049E00870189918111FBCFDF91CF910895E5
:1004AC00A29FB001B39FC001A39F700D811D1124A9
:0E04BC00911DB29F700D811D1124911D089598
:1004CA008A9A8E988EB580648EBD8EB582608EBDF6
:0A04DA0089B7806289BF7894089505
:1004E400EC010E9489020E948802CE010E948A02C5
:0604F400CE010E94860209
:0E04FA00929A85E38A95F1F700009298089592
:040508000C9400004F
:04050C000E945500F4
:0205100008954C
:0205120008954A
:02051400089548
:00000001FF
