:100000000C9430000C9423030C9423030C942303CE
:100010000C9423030C9423030C94FA000C942303F4
:100020000C9423030C9423030C9423030C942303B8
:100030000C9423030C9423030C9423030C942303A8
:100040000C9423030C9423030C9423030C94230398
:100050000C942303006000890006540089008D8001
:1000600011241FBECFE5D8E0DEBFCDBFE4E5F0E050
:1000700040E017C0B591A59135912591059107FDF7
:100080000CC095918591EF01F92FE82F05900D9205
:10009000A217B307D9F7FE0104C01D92A217B30738
:1000A000E1F7E036F40731F70E945A000C9404039C
:0400B000F894FFCFF2
:1000B4000E94C6000E94DF020E94F9020E941B03F4
:1000C4000E94EC0280E690E00E94C1020E940F03AD
:1000D4000E9470020E9491008F3F19F40E941F0336
:1000E400F5CF8B3548F00E9491020E94480285E6C4
:1000F40090E00E94C1020AC08A3540F40E94810245
:100104000E94480280E790E00E94C1020E94160308
:0E0114000E9448028AE790E00E94C102D7CF05
:10012200EF92FF920F931F93CF93DF93C0E0DFEF25
:1001320000E010E0E12CF12C92E39C0F93BDF7015B
:100142003197F1F70E9470020817190710F4DC2F9B
:100152008C01CF5FC53B81F70F30110570F482E04F
:1001620090E00E940E0280E090E00197F1F782E0B9
:1001720090E00E942B028FEF01C08D2FDF91CF9173
:0A0182001F910F91FF90EF90089578
:10018C0061E070E080EF90E00E94A10261E070E01D
:10019C0081E090E00E94250161E070E082E090E057
:1001AC000E94250161E070E083E090E00E9425014F
:1001BC002FEF89EF90E0215080409040E1F700C094
:1001CC00000060E070E081E090E00E94AB0182E012
:1001DC000E94690188E20E9469018CE00E94690119
:0801EC0081E00E946901089501
:1001F4000F920FB60F922F933F938F939F930EB44A
:1002040006FE0AC086B597B590938A00809389004C
:100214008EB58F7B8EBD0FC086B597B520918900B2
:1002240030918A00821B930B90938C0080938B00F7
:100234008EB580648EBD9F918F913F912F910F90C9
:060244000FBE0F9018959B
:10024A006115710521F06130710579F0089547B3A0
:10025A0021E030E0B90102C0660F771F8A95E2F704
:10026A00CB018095842387BB089547B321E030E012
:10027A00B90102C0660F771F8A95E2F7CB01842B7A
:04028A0087BB089591
:10028E006115710521F06130710579F0089541B362
:10029E0021E030E0B90102C0660F771F8A95E2F7C0
:1002AE00CB018095842381BB089541B321E030E0DA
:1002BE00B90102C0660F771F8A95E2F7CB01842B36
:0402CE0081BB089553
:1002D200CF93C82FC1988BB38F709C2F907F892B9F
:1002E2008BBB0E945E028BB3282F2F7030E1C39F1D
:1002F200C0011124822B8BBB0E945E028FEF99EF0B
:1003020020E0815090402040E1F700C00000CF91F2
:0203120008954C
:10031400CF93C82FC19A8BB38F709C2F907F892B5A
:100324008BBB0E945E028BB3282F2F7030E1C39FDA
:10033400C0011124822B8BBB0E945E028FEF99EFC8
:1003440020E0815090402040E1F700C00000CF91B0
:0203540008950A
:100356006115710581F061307105D1F448B321E072
:1003660030E0B90102C0660F771F8A95E2F7CB012C
:10037600842B88BB089548B321E030E0B90102C060
:10038600660F771F8A95E2F7CB018095842388BB99
:020396000895C8
:100398006115710581F061307105D1F445B321E033
:1003A80030E0B90102C0660F771F8A95E2F7CB01EA
:1003B800842B85BB089545B321E030E0B90102C024
:1003C800660F771F8A95E2F7CB018095842385BB5A
:0203D800089586
:1003DA006115710581F061307105D1F442B321E0F4
:1003EA0030E0B90102C0660F771F8A95E2F7CB01A8
:1003FA00842B82BB089542B321E030E0B90102C0E8
:10040A00660F771F8A95E2F7CB018095842382BB1A
:02041A00089543
:10041C008330910599F08730910549F00297A1F44A
:10042C0061E070E082E090E00E94CC01089561E010
:10043C0070E087E090E00E94CC01089561E070E0EC
:0A044C0083E090E00E94ED010895A6
:100456008330910599F08730910549F00297A1F410
:1004660060E070E082E090E00E94CC01089560E0D8
:1004760070E087E090E00E94CC01089560E070E0B3
:0A04860083E090E00E94ED0108956C
:10049000C1988BB38F708BBB0E945E028BB38F7041
:1004A00080618BBB0E945E022FEF89EF90E02150AC
:0C04B00080409040E1F700C0000008957B
:1004BC00C39A87EC90E00197F1F700C00000C39855
:1004CC009FEF29EF80E0915020408040E1F700C081
:0404DC00000008957F
:1004E00020918B0030918C00AFE9B6E40E94D002DD
:1004F00096958795929582958F7089279F70892709
:0205000008955C
:100502000E941F03D89ADA9A2FEF89E698E12150C8
:1005120080409040E1F700C000000E941F03089550
:100522000E941F03D99ADB9A2FEF89E698E12150A6
:1005320080409040E1F700C000000E941F03089530
:100542006115710521F06130710531F008959AB39A
:10055200809589238ABB08959AB3892B8ABB089513
:100562006115710521F06130710531F0089594B380
:100572008095892384BB089594B3892B84BB089505
:10058200CF93DF93EC018881882331F021960E947A
:0E0592008A0189918111FBCFDF91CF910895ED
:1005A000A29FB001B39FC001A39F700D811D1124B4
:0E05B000911DB29F700D811D1124911D0895A3
:1005BE008A9A8E988EB580648EBD8EB582608EBD01
:0A05CE0089B7806289BF7894089510
:1005D80061E070E084E890E00E94B10261E070E0C0
:0A05E80083E090E00E9447010895AF
:1005F20085B5886085BD85B5806185BD85B5866018
:0606020085BD8F9A0895EA
:10060800EC010E9428030E942703CE010E942903BF
:06061800CE010E94250343
:0E061E00929A85E38A95F1F70000929808956C
:0A062C00D99AD898DA9ADB9808955D
:080636008AB38F608ABB0895AE
:08063E008BB3807F8BBB089594
:040646000C94000010
:04064A000E945800B2
:02064E0008950D
:0206500008950B
:02065200089509
:100654006C656674005475726E2072696768740004
:100664007475726E206C656674006D6F76696E6762
:0906740020666F72776172640068
:00000001FF
